"use strict";(self.webpackChunkEthereum_Json_RPC=self.webpackChunkEthereum_Json_RPC||[]).push([[5538],{3004:(e,d,t)=>{t.r(d),t.d(d,{assets:()=>s,contentTitle:()=>n,default:()=>h,frontMatter:()=>c,metadata:()=>a,toc:()=>r});var i=t(4848),l=t(8453);const c={sidebar_position:3},n="debug_getBadBlocks",a={id:"Api-Methods/debug_BadBlocks",title:"debug_getBadBlocks",description:"Returns an array of recent bad blocks that the client has seen on the network.\\",source:"@site/docs/Api-Methods/debug_BadBlocks.md",sourceDirName:"Api-Methods",slug:"/Api-Methods/debug_BadBlocks",permalink:"/Api-Methods/debug_BadBlocks",draft:!1,unlisted:!1,editUrl:"https://github.com/Redidacove/Execution-Api-docs/edit/main/docs/Api-Methods/debug_BadBlocks.md",tags:[],version:"current",sidebarPosition:3,frontMatter:{sidebar_position:3},sidebar:"Sidebar",previous:{title:"Api-Methods",permalink:"/category/api-methods"},next:{title:"debug_getRawBlock",permalink:"/Api-Methods/debug_getRawBlock"}},s={},r=[{value:"Result",id:"result",level:3},{value:"Parameter Name",id:"parameter-name",level:2},{value:"schema",id:"schema",level:3},{value:"<code>Array</code>",id:"array",level:3},{value:"block",id:"block",level:4},{value:"hash",id:"hash",level:4},{value:"title - <code>Hash</code>",id:"title---hash",level:5},{value:"type - <code>string</code>",id:"type---string",level:5},{value:"parentHash",id:"parenthash",level:4},{value:"title - <code>Parent hash</code>",id:"title---parent-hash",level:5},{value:"type - <code>string</code>",id:"type---string-1",level:5},{value:"sha3Uncles",id:"sha3uncles",level:4},{value:"title - <code>Ommers hash</code>",id:"title---ommers-hash",level:5},{value:"type - <code>string</code>",id:"type---string-2",level:5},{value:"miner",id:"miner",level:4},{value:"title - <code>Coinbase</code>",id:"title---coinbase",level:5},{value:"type - <code>string</code>",id:"type---string-3",level:5},{value:"stateRoot",id:"stateroot",level:4},{value:"title - <code>State root</code>",id:"title---state-root",level:5},{value:"type - <code>string</code>",id:"type---string-4",level:5},{value:"transactionsRoot",id:"transactionsroot",level:4},{value:"title - <code>Transactions root</code>",id:"title---transactions-root",level:5},{value:"type - <code>string</code>",id:"type---string-5",level:5},{value:"receiptsRoot",id:"receiptsroot",level:4},{value:"title - <code>Receipts root</code>",id:"title---receipts-root",level:5},{value:"type - <code>string</code>",id:"type---string-6",level:5},{value:"logsBloom",id:"logsbloom",level:4},{value:"title - <code>Bloom filter</code>",id:"title---bloom-filter",level:5},{value:"type - <code>string</code>",id:"type---string-7",level:5},{value:"difficulty",id:"difficulty",level:4},{value:"title - <code>Difficulty</code>",id:"title---difficulty",level:5},{value:"type - <code>string</code>",id:"type---string-8",level:5},{value:"number",id:"number",level:4},{value:"title - <code>Number</code>",id:"title---number",level:5},{value:"type - <code>string</code>",id:"type---string-9",level:5},{value:"gasLimit",id:"gaslimit",level:4},{value:"title - <code>Gas limit</code>",id:"title---gas-limit",level:5},{value:"type - <code>string</code>",id:"type---string-10",level:5},{value:"gasUsed",id:"gasused",level:4},{value:"title - <code>Gas used</code>",id:"title---gas-used",level:5},{value:"type - <code>string</code>",id:"type---string-11",level:5},{value:"timestamp",id:"timestamp",level:4},{value:"title - <code>Timestamp</code>",id:"title---timestamp",level:5},{value:"type - <code>string</code>",id:"type---string-12",level:5},{value:"extraData",id:"extradata",level:4},{value:"title : <code>Extra data</code>",id:"title--extra-data",level:5},{value:"type : <code>string</code>",id:"type--string",level:5},{value:"mixHash",id:"mixhash",level:4},{value:"title : <code>Mix hash</code>",id:"title--mix-hash",level:5},{value:"type : <code>string</code>",id:"type--string-1",level:5},{value:"nounce",id:"nounce",level:4},{value:"title - <code>Nounce</code>",id:"title---nounce",level:5},{value:"type - <code>string</code>",id:"type---string-13",level:5},{value:"totalDifficulty",id:"totaldifficulty",level:4},{value:"title - <code>Total difficulty</code>",id:"title---total-difficulty",level:5},{value:"type - <code>string</code>",id:"type---string-14",level:5},{value:"baseFeePerGas",id:"basefeepergas",level:4},{value:"title : <code>Base fee per gas</code>",id:"title--base-fee-per-gas",level:5},{value:"type : <code>string</code>",id:"type--string-2",level:5},{value:"withdrawalRoot",id:"withdrawalroot",level:4},{value:"title - <code>Withdrawal root</code>",id:"title---withdrawal-root",level:5},{value:"type - <code>string</code>",id:"type---string-15",level:5},{value:"blobGasUsed",id:"blobgasused",level:4},{value:"title - <code>Blob gas used</code>",id:"title---blob-gas-used",level:5},{value:"type - <code>string</code>",id:"type---string-16",level:5},{value:"excessBlobGas",id:"excessblobgas",level:4},{value:"title - <code>Excess blob gas</code>",id:"title---excess-blob-gas",level:5},{value:"type - <code>string</code>",id:"type---string-17",level:5},{value:"parentBeaconBlockRoot",id:"parentbeaconblockroot",level:4},{value:"title - <code>Parent Beacon Block Root</code>",id:"title---parent-beacon-block-root",level:5},{value:"type - <code>string</code>",id:"type---string-18",level:5},{value:"size",id:"size",level:4},{value:"title - <code>Block size</code>",id:"title---block-size",level:5},{value:"type - <code>string</code>",id:"type---string-19",level:5},{value:"transactions",id:"transactions",level:4},{value:"title : <code>Transactions</code>",id:"title--transactions",level:5},{value:"title : <code>hex encoded bytes</code>",id:"title--hex-encoded-bytes",level:5},{value:"type : <code>string</code>",id:"type--string-3",level:5},{value:"withdrawals",id:"withdrawals",level:4},{value:"title : <code>Withdrawals</code>",id:"title--withdrawals",level:5},{value:"title : <code>Withdrawal object V1</code>",id:"title--withdrawal-object-v1",level:5},{value:"type : <code>string</code>",id:"type--string-4",level:5},{value:"index",id:"index",level:4},{value:"title : <code>Withdrawal index</code>",id:"title--withdrawal-index",level:5},{value:"type : <code>string</code>",id:"type--string-5",level:5},{value:"validatorindex",id:"validatorindex",level:4},{value:"title : <code>Validator index</code>",id:"title--validator-index",level:5},{value:"type : <code>string</code>",id:"type--string-6",level:5},{value:"address",id:"address",level:4},{value:"title : <code>Withdrawal address</code>",id:"title--withdrawal-address",level:5},{value:"type : <code>string</code>",id:"type--string-7",level:5},{value:"amount",id:"amount",level:4},{value:"title : <code>Withdrawal amount</code>",id:"title--withdrawal-amount",level:5},{value:"type : <code>string</code>",id:"type--string-8",level:5},{value:"hash",id:"hash-1",level:3},{value:"title - <code>Hash</code>",id:"title---hash-1",level:5},{value:"type - <code>string</code>",id:"type---string-20",level:5},{value:"rlp",id:"rlp",level:3},{value:"title - <code>RLP</code>",id:"title---rlp",level:5},{value:"type - <code>string</code>",id:"type---string-21",level:5},{value:"Example Request",id:"example-request",level:2},{value:"Result",id:"result-1",level:2}];function o(e){const d={code:"code",h1:"h1",h2:"h2",h3:"h3",h4:"h4",h5:"h5",header:"header",li:"li",p:"p",pre:"pre",ul:"ul",...(0,l.R)(),...e.components};return(0,i.jsxs)(i.Fragment,{children:[(0,i.jsx)(d.header,{children:(0,i.jsx)(d.h1,{id:"debug_getbadblocks",children:"debug_getBadBlocks"})}),"\n",(0,i.jsx)(d.p,{children:"Returns an array of recent bad blocks that the client has seen on the network.\\"}),"\n",(0,i.jsx)(d.h3,{id:"result",children:"Result"}),"\n",(0,i.jsx)(d.h2,{id:"parameter-name",children:"Parameter Name"}),"\n",(0,i.jsxs)(d.ul,{children:["\n",(0,i.jsx)(d.li,{children:"Block"}),"\n"]}),"\n",(0,i.jsx)(d.h3,{id:"schema",children:"schema"}),"\n",(0,i.jsx)(d.h3,{id:"array",children:(0,i.jsx)(d.code,{children:"Array"})}),"\n",(0,i.jsxs)(d.ul,{children:["\n",(0,i.jsxs)(d.li,{children:["title - ",(0,i.jsx)(d.code,{children:"Bad block array"}),"\r\n",(0,i.jsx)(d.code,{children:"Object"})]}),"\n",(0,i.jsxs)(d.li,{children:["title - ",(0,i.jsx)(d.code,{children:"Bad block"})]}),"\n"]}),"\n",(0,i.jsx)(d.h4,{id:"block",children:"block"}),"\n",(0,i.jsx)(d.p,{children:(0,i.jsx)(d.code,{children:"Object"})}),"\n",(0,i.jsxs)(d.ul,{children:["\n",(0,i.jsxs)(d.li,{children:["title - Block\r\n",(0,i.jsx)(d.code,{children:"properties"})]}),"\n"]}),"\n",(0,i.jsx)(d.h4,{id:"hash",children:"hash"}),"\n",(0,i.jsxs)(d.h5,{id:"title---hash",children:["title - ",(0,i.jsx)(d.code,{children:"Hash"})]}),"\n",(0,i.jsxs)(d.h5,{id:"type---string",children:["type - ",(0,i.jsx)(d.code,{children:"string"})]}),"\n",(0,i.jsx)(d.h4,{id:"parenthash",children:"parentHash"}),"\n",(0,i.jsxs)(d.h5,{id:"title---parent-hash",children:["title - ",(0,i.jsx)(d.code,{children:"Parent hash"})]}),"\n",(0,i.jsxs)(d.h5,{id:"type---string-1",children:["type - ",(0,i.jsx)(d.code,{children:"string"})]}),"\n",(0,i.jsx)(d.h4,{id:"sha3uncles",children:"sha3Uncles"}),"\n",(0,i.jsxs)(d.h5,{id:"title---ommers-hash",children:["title - ",(0,i.jsx)(d.code,{children:"Ommers hash"})]}),"\n",(0,i.jsxs)(d.h5,{id:"type---string-2",children:["type - ",(0,i.jsx)(d.code,{children:"string"})]}),"\n",(0,i.jsx)(d.h4,{id:"miner",children:"miner"}),"\n",(0,i.jsxs)(d.h5,{id:"title---coinbase",children:["title - ",(0,i.jsx)(d.code,{children:"Coinbase"})]}),"\n",(0,i.jsxs)(d.h5,{id:"type---string-3",children:["type - ",(0,i.jsx)(d.code,{children:"string"})]}),"\n",(0,i.jsx)(d.h4,{id:"stateroot",children:"stateRoot"}),"\n",(0,i.jsxs)(d.h5,{id:"title---state-root",children:["title - ",(0,i.jsx)(d.code,{children:"State root"})]}),"\n",(0,i.jsxs)(d.h5,{id:"type---string-4",children:["type - ",(0,i.jsx)(d.code,{children:"string"})]}),"\n",(0,i.jsx)(d.h4,{id:"transactionsroot",children:"transactionsRoot"}),"\n",(0,i.jsxs)(d.h5,{id:"title---transactions-root",children:["title - ",(0,i.jsx)(d.code,{children:"Transactions root"})]}),"\n",(0,i.jsxs)(d.h5,{id:"type---string-5",children:["type - ",(0,i.jsx)(d.code,{children:"string"})]}),"\n",(0,i.jsx)(d.h4,{id:"receiptsroot",children:"receiptsRoot"}),"\n",(0,i.jsxs)(d.h5,{id:"title---receipts-root",children:["title - ",(0,i.jsx)(d.code,{children:"Receipts root"})]}),"\n",(0,i.jsxs)(d.h5,{id:"type---string-6",children:["type - ",(0,i.jsx)(d.code,{children:"string"})]}),"\n",(0,i.jsx)(d.h4,{id:"logsbloom",children:"logsBloom"}),"\n",(0,i.jsxs)(d.h5,{id:"title---bloom-filter",children:["title - ",(0,i.jsx)(d.code,{children:"Bloom filter"})]}),"\n",(0,i.jsxs)(d.h5,{id:"type---string-7",children:["type - ",(0,i.jsx)(d.code,{children:"string"})]}),"\n",(0,i.jsx)(d.h4,{id:"difficulty",children:"difficulty"}),"\n",(0,i.jsxs)(d.h5,{id:"title---difficulty",children:["title - ",(0,i.jsx)(d.code,{children:"Difficulty"})]}),"\n",(0,i.jsxs)(d.h5,{id:"type---string-8",children:["type - ",(0,i.jsx)(d.code,{children:"string"})]}),"\n",(0,i.jsx)(d.h4,{id:"number",children:"number"}),"\n",(0,i.jsxs)(d.h5,{id:"title---number",children:["title - ",(0,i.jsx)(d.code,{children:"Number"})]}),"\n",(0,i.jsxs)(d.h5,{id:"type---string-9",children:["type - ",(0,i.jsx)(d.code,{children:"string"})]}),"\n",(0,i.jsx)(d.h4,{id:"gaslimit",children:"gasLimit"}),"\n",(0,i.jsxs)(d.h5,{id:"title---gas-limit",children:["title - ",(0,i.jsx)(d.code,{children:"Gas limit"})]}),"\n",(0,i.jsxs)(d.h5,{id:"type---string-10",children:["type - ",(0,i.jsx)(d.code,{children:"string"})]}),"\n",(0,i.jsx)(d.h4,{id:"gasused",children:"gasUsed"}),"\n",(0,i.jsxs)(d.h5,{id:"title---gas-used",children:["title - ",(0,i.jsx)(d.code,{children:"Gas used"})]}),"\n",(0,i.jsxs)(d.h5,{id:"type---string-11",children:["type - ",(0,i.jsx)(d.code,{children:"string"})]}),"\n",(0,i.jsx)(d.h4,{id:"timestamp",children:"timestamp"}),"\n",(0,i.jsxs)(d.h5,{id:"title---timestamp",children:["title - ",(0,i.jsx)(d.code,{children:"Timestamp"})]}),"\n",(0,i.jsxs)(d.h5,{id:"type---string-12",children:["type - ",(0,i.jsx)(d.code,{children:"string"})]}),"\n",(0,i.jsx)(d.h4,{id:"extradata",children:"extraData"}),"\n",(0,i.jsxs)(d.h5,{id:"title--extra-data",children:["title : ",(0,i.jsx)(d.code,{children:"Extra data"})]}),"\n",(0,i.jsxs)(d.h5,{id:"type--string",children:["type : ",(0,i.jsx)(d.code,{children:"string"})]}),"\n",(0,i.jsx)(d.h4,{id:"mixhash",children:"mixHash"}),"\n",(0,i.jsxs)(d.h5,{id:"title--mix-hash",children:["title : ",(0,i.jsx)(d.code,{children:"Mix hash"})]}),"\n",(0,i.jsxs)(d.h5,{id:"type--string-1",children:["type : ",(0,i.jsx)(d.code,{children:"string"})]}),"\n",(0,i.jsx)(d.h4,{id:"nounce",children:"nounce"}),"\n",(0,i.jsxs)(d.h5,{id:"title---nounce",children:["title - ",(0,i.jsx)(d.code,{children:"Nounce"})]}),"\n",(0,i.jsxs)(d.h5,{id:"type---string-13",children:["type - ",(0,i.jsx)(d.code,{children:"string"})]}),"\n",(0,i.jsx)(d.h4,{id:"totaldifficulty",children:"totalDifficulty"}),"\n",(0,i.jsxs)(d.h5,{id:"title---total-difficulty",children:["title - ",(0,i.jsx)(d.code,{children:"Total difficulty"})]}),"\n",(0,i.jsxs)(d.h5,{id:"type---string-14",children:["type - ",(0,i.jsx)(d.code,{children:"string"})]}),"\n",(0,i.jsx)(d.h4,{id:"basefeepergas",children:"baseFeePerGas"}),"\n",(0,i.jsxs)(d.h5,{id:"title--base-fee-per-gas",children:["title : ",(0,i.jsx)(d.code,{children:"Base fee per gas"})]}),"\n",(0,i.jsxs)(d.h5,{id:"type--string-2",children:["type : ",(0,i.jsx)(d.code,{children:"string"})]}),"\n",(0,i.jsx)(d.h4,{id:"withdrawalroot",children:"withdrawalRoot"}),"\n",(0,i.jsxs)(d.h5,{id:"title---withdrawal-root",children:["title - ",(0,i.jsx)(d.code,{children:"Withdrawal root"})]}),"\n",(0,i.jsxs)(d.h5,{id:"type---string-15",children:["type - ",(0,i.jsx)(d.code,{children:"string"})]}),"\n",(0,i.jsx)(d.h4,{id:"blobgasused",children:"blobGasUsed"}),"\n",(0,i.jsxs)(d.h5,{id:"title---blob-gas-used",children:["title - ",(0,i.jsx)(d.code,{children:"Blob gas used"})]}),"\n",(0,i.jsxs)(d.h5,{id:"type---string-16",children:["type - ",(0,i.jsx)(d.code,{children:"string"})]}),"\n",(0,i.jsx)(d.h4,{id:"excessblobgas",children:"excessBlobGas"}),"\n",(0,i.jsxs)(d.h5,{id:"title---excess-blob-gas",children:["title - ",(0,i.jsx)(d.code,{children:"Excess blob gas"})]}),"\n",(0,i.jsxs)(d.h5,{id:"type---string-17",children:["type - ",(0,i.jsx)(d.code,{children:"string"})]}),"\n",(0,i.jsx)(d.h4,{id:"parentbeaconblockroot",children:"parentBeaconBlockRoot"}),"\n",(0,i.jsxs)(d.h5,{id:"title---parent-beacon-block-root",children:["title - ",(0,i.jsx)(d.code,{children:"Parent Beacon Block Root"})]}),"\n",(0,i.jsxs)(d.h5,{id:"type---string-18",children:["type - ",(0,i.jsx)(d.code,{children:"string"})]}),"\n",(0,i.jsx)(d.h4,{id:"size",children:"size"}),"\n",(0,i.jsxs)(d.h5,{id:"title---block-size",children:["title - ",(0,i.jsx)(d.code,{children:"Block size"})]}),"\n",(0,i.jsxs)(d.h5,{id:"type---string-19",children:["type - ",(0,i.jsx)(d.code,{children:"string"})]}),"\n",(0,i.jsx)(d.h4,{id:"transactions",children:"transactions"}),"\n",(0,i.jsx)(d.p,{children:(0,i.jsx)(d.code,{children:"Array"})}),"\n",(0,i.jsxs)(d.h5,{id:"title--transactions",children:["title : ",(0,i.jsx)(d.code,{children:"Transactions"})]}),"\n",(0,i.jsxs)(d.h5,{id:"title--hex-encoded-bytes",children:["title : ",(0,i.jsx)(d.code,{children:"hex encoded bytes"})]}),"\n",(0,i.jsxs)(d.h5,{id:"type--string-3",children:["type : ",(0,i.jsx)(d.code,{children:"string"})]}),"\n",(0,i.jsx)(d.h4,{id:"withdrawals",children:"withdrawals"}),"\n",(0,i.jsx)(d.p,{children:(0,i.jsx)(d.code,{children:"Array"})}),"\n",(0,i.jsxs)(d.h5,{id:"title--withdrawals",children:["title : ",(0,i.jsx)(d.code,{children:"Withdrawals"})]}),"\n",(0,i.jsx)(d.p,{children:(0,i.jsx)(d.code,{children:"Object"})}),"\n",(0,i.jsxs)(d.h5,{id:"title--withdrawal-object-v1",children:["title : ",(0,i.jsx)(d.code,{children:"Withdrawal object V1"})]}),"\n",(0,i.jsxs)(d.h5,{id:"type--string-4",children:["type : ",(0,i.jsx)(d.code,{children:"string"})]}),"\n",(0,i.jsx)(d.p,{children:(0,i.jsx)(d.code,{children:"properties"})}),"\n",(0,i.jsx)(d.h4,{id:"index",children:"index"}),"\n",(0,i.jsxs)(d.h5,{id:"title--withdrawal-index",children:["title : ",(0,i.jsx)(d.code,{children:"Withdrawal index"})]}),"\n",(0,i.jsxs)(d.h5,{id:"type--string-5",children:["type : ",(0,i.jsx)(d.code,{children:"string"})]}),"\n",(0,i.jsx)(d.h4,{id:"validatorindex",children:"validatorindex"}),"\n",(0,i.jsxs)(d.h5,{id:"title--validator-index",children:["title : ",(0,i.jsx)(d.code,{children:"Validator index"})]}),"\n",(0,i.jsxs)(d.h5,{id:"type--string-6",children:["type : ",(0,i.jsx)(d.code,{children:"string"})]}),"\n",(0,i.jsx)(d.h4,{id:"address",children:"address"}),"\n",(0,i.jsxs)(d.h5,{id:"title--withdrawal-address",children:["title : ",(0,i.jsx)(d.code,{children:"Withdrawal address"})]}),"\n",(0,i.jsxs)(d.h5,{id:"type--string-7",children:["type : ",(0,i.jsx)(d.code,{children:"string"})]}),"\n",(0,i.jsx)(d.h4,{id:"amount",children:"amount"}),"\n",(0,i.jsxs)(d.h5,{id:"title--withdrawal-amount",children:["title : ",(0,i.jsx)(d.code,{children:"Withdrawal amount"})]}),"\n",(0,i.jsxs)(d.h5,{id:"type--string-8",children:["type : ",(0,i.jsx)(d.code,{children:"string"})]}),"\n",(0,i.jsx)(d.h3,{id:"hash-1",children:"hash"}),"\n",(0,i.jsxs)(d.h5,{id:"title---hash-1",children:["title - ",(0,i.jsx)(d.code,{children:"Hash"})]}),"\n",(0,i.jsxs)(d.h5,{id:"type---string-20",children:["type - ",(0,i.jsx)(d.code,{children:"string"})]}),"\n",(0,i.jsx)(d.h3,{id:"rlp",children:"rlp"}),"\n",(0,i.jsxs)(d.h5,{id:"title---rlp",children:["title - ",(0,i.jsx)(d.code,{children:"RLP"})]}),"\n",(0,i.jsxs)(d.h5,{id:"type---string-21",children:["type - ",(0,i.jsx)(d.code,{children:"string"})]}),"\n",(0,i.jsx)(d.h2,{id:"example-request",children:"Example Request"}),"\n",(0,i.jsx)(d.pre,{children:(0,i.jsx)(d.code,{className:"language-bash",children:'{\r\n  "id": 1,\r\n  "jsonrpc": "2.0",\r\n  "method": "debug_getBadBlocks",\r\n  "params": []\r\n}\n'})}),"\n",(0,i.jsx)(d.h2,{id:"result-1",children:"Result"}),"\n",(0,i.jsx)(d.pre,{children:(0,i.jsx)(d.code,{className:"language-bash",children:'{\r\n  "id": 1,\r\n  "jsonrpc": "2.0   ",\r\n  "result": [\r\n    {\r\n      "block": {\r\n        "number": "0xd",\r\n        "hash": "0x85c2edc1ca74b4863cab46ff6ed4df514a698aa7c29a9bce58742a33af07d7e6",\r\n        "mixHash": "0x0000000000000000000000000000000000000000000000000000000000000000",\r\n        "parentHash": "0x544a2f7a4c8defc0d8da44aa0c0db7c36b56db2605c01ed266e919e936579d31",\r\n        "nonce": "0x0000000000000000",\r\n        "sha3Uncles": "0x1dcc4de8dec75d7aab85b567b6ccd41ad312451b948a7413f0a142fd40d49347",\r\n        "logsBloom": "0x00000000000000000000000000000000000000000000000000000000000000000000000000000000000000000000000000000000000000000000000000000000000000000000000000000000000000000000000000000000000000000000000000000000000000000000000000000000000000000000000000000000000000000000000000000000000000000000000000000000000000000000000000000000000000000000000000000000000000000000000000000000000000000000000000000000000000000000000000000000000000000000000000000000000000000000000000000000000000000000000000000000000000000000000000000000",\r\n        "transactionsRoot": "0x02c387e001cbe2a8296bfa2e18afbc3480d0e49588b05556148b0bf7c17dec41",\r\n        "stateRoot": "0x861ab7e868e3c23f84b7c4ed86b52a6a4f063633bc45ef29212c33459df84ea5",\r\n        "receiptsRoot": "0xccd2d33763dc0ac3fe02d4ecbbcd7d2bdc6f57db635ba31007184679303721d7",\r\n        "miner": "0x0000000000000000000000000000000000000000",\r\n        "difficulty": "0x1",\r\n        "totalDifficulty": "0x1",\r\n        "extraData": "0x00000000000000000000000000000000000000000000000000000000000000008c6a091f07e4ba3930f2f5fabbfc5b1c70986319096760ba200a6abc0d30e33c2d501702d1b58d7f75807bdbf981044557628611319121170b96466ec06bb3fd01",\r\n        "size": "0x3a0",\r\n        "gasLimit": "0xffffffffffff",\r\n        "gasUsed": "0x1a488",\r\n        "timestamp": "0x5f5b6824",\r\n        "uncles": [],\r\n        "transactions": [\r\n          {\r\n            "blockHash": "0x85c2edc1ca74b4863cab46ff6ed4df514a698aa7c29a9bce58742a33af07d7e6",\r\n            "blockNumber": "0xd",\r\n            "from": "0xfe3b557e8fb62b89f4916b721be55ceb828dbd73",\r\n            "gas": "0x1a49e",\r\n            "gasPrice": "0x3e8",\r\n            "hash": "0xdd8cf045113754c306ba9ac8ac8786235e33bc5c087678084ef260a2a583f127",\r\n            "input": "0x608060405234801561001057600080fd5b5060c78061001f6000396000f3fe6080604052348015600f57600080fd5b506004361060325760003560e01c80636057361d146037578063b05784b8146062575b600080fd5b606060048036036020811015604b57600080fd5b8101908080359060200190929190505050607e565b005b60686088565b6040518082815260200191505060405180910390f35b8060008190555050565b6000805490509056fea26469706673582212208dea039245bf78c381278382d7056eef5083f7d243d8958817ef447e0a403bd064736f6c63430006060033",\r\n            "nonce": "0x0",\r\n            "to": null,\r\n            "transactionIndex": "0x0",\r\n            "value": "0x0",\r\n            "v": "0xf9d",\r\n            "r": "0xa7a15050302ca4b7d3842d35cdd3cbf25b2c48c0c37f96d78beb6a6a6bc4f1c7",\r\n            "s": "0x130d29294b2b6a2b7e89f501eb27772f7abf37bfa28a1ce300daade975589fca"\r\n          }\r\n        ]\r\n      },\r\n      "hash": "0x85c2edc1ca74b4863cab46ff6ed4df514a698aa7c29a9bce58742a33af07d7e6",\r\n      "rlp": "0xf9039df9025ca0544a2f7a4c8defc0d8da44aa0c0db7c36b56db2605c01ed266e919e936579d31a01dcc4de8dec75d7aab85b567b6ccd41ad312451b948a7413f0a142fd40d49347940000000000000000000000000000000000000000a0861ab7e868e3c23f84b7c4ed86b52a6a4f063633bc45ef29212c33459df84ea5a002c387e001cbe2a8296bfa2e18afbc3480d0e49588b05556148b0bf7c17dec41a0ccd2d33763dc0ac3fe02d4ecbbcd7d2bdc6f57db635ba31007184679303721d7b9010000000000000000000000000000000000000000000000000000000000000000000000000000000000000000000000000000000000000000000000000000000000000000000000000000000000000000000000000000000000000000000000000000000000000000000000000000000000000000000000000000000000000000000000000000000000000000000000000000000000000000000000000000000000000000000000000000000000000000000000000000000000000000000000000000000000000000000000000000000000000000000000000000000000000000000000000000000000000000000000000000000000000000000000000000000000010d86ffffffffffff8301a488845f5b6824b86100000000000000000000000000000000000000000000000000000000000000008c6a091f07e4ba3930f2f5fabbfc5b1c70986319096760ba200a6abc0d30e33c2d501702d1b58d7f75807bdbf981044557628611319121170b96466ec06bb3fd01a00000000000000000000000000000000000000000000000000000000000000000880000000000000000f9013af90137808203e88301a49e8080b8e6608060405234801561001057600080fd5b5060c78061001f6000396000f3fe6080604052348015600f57600080fd5b506004361060325760003560e01c80636057361d146037578063b05784b8146062575b600080fd5b606060048036036020811015604b57600080fd5b8101908080359060200190929190505050607e565b005b60686088565b6040518082815260200191505060405180910390f35b8060008190555050565b6000805490509056fea26469706673582212208dea039245bf78c381278382d7056eef5083f7d243d8958817ef447e0a403bd064736f6c63430006060033820f9da0a7a15050302ca4b7d3842d35cdd3cbf25b2c48c0c37f96d78beb6a6a6bc4f1c7a0130d29294b2b6a2b7e89f501eb27772f7abf37bfa28a1ce300daade975589fcac0"\r\n    },\r\n    {\r\n      "block": {\r\n        "number": "0x8",\r\n        "hash": "0x601a3ae9b6eceb2476d249e1cffe058ba3ff2c9c1b28b1ec7a0259fdd1d90121",\r\n        "mixHash": "0x0000000000000000000000000000000000000000000000000000000000000000",\r\n        "parentHash": "0x98ae440cd7b904d842daa6c263608969a3c8ce6a9acd6bd1f99b394f5f28a207",\r\n        "nonce": "0x0000000000000000",\r\n        "sha3Uncles": "0x1dcc4de8dec75d7aab85b567b6ccd41ad312451b948a7413f0a142fd40d49347",\r\n        "logsBloom": "0x00000000000000000000000000000000000000000000000000000000000000000000000000000000000000000000000000000000000000000000000000000000000000000000000000000000000000000000000000000000000000000000000000000000000000000000000000000000000000000000000000000000000000000000000000000000000000000000000000000000000000000000000000000000000000000000000000000000000000000000000000000000000000000000000000000000000000000000000000000000000000000000000000000000000000000000000000000000000000000000000000000000000000000000000000000000",\r\n        "transactionsRoot": "0x8ee998cc699a1f9310a1079458780b3ebee8756f96a0905f5224b89d0eb17486",\r\n        "stateRoot": "0x140a9783291704223eb759e3a0db5471a520d349fc17ac2f77ff8582472e3bac",\r\n        "receiptsRoot": "0x2b5c77f6e7764d2468178fab7253346b9b8bb6a34b63946f6bdc2f5ad398bfc3",\r\n        "miner": "0x0000000000000000000000000000000000000000",\r\n        "difficulty": "0x2",\r\n        "totalDifficulty": "0x2",\r\n        "extraData": "0x00000000000000000000000000000000000000000000000000000000000000004d04551bdd9ae08af1fd661e49d4ab662c98c532c7ec0e4656a27e4de7d330af578ab1e4f5e49e085ff1d78673c7388ed9ccf017fbe89e53066bfa4018142c0701",\r\n        "size": "0x3a0",\r\n        "gasLimit": "0xffffffffffff",\r\n        "gasUsed": "0x1a4c9",\r\n        "timestamp": "0x5f5b6b80",\r\n        "uncles": [],\r\n        "transactions": [\r\n          {\r\n            "blockHash": "0x601a3ae9b6eceb2476d249e1cffe058ba3ff2c9c1b28b1ec7a0259fdd1d90121",\r\n            "blockNumber": "0x8",\r\n            "from": "0xfe3b557e8fb62b89f4916b721be55ceb828dbd73",\r\n            "gas": "0x1a4c9",\r\n            "gasPrice": "0x3e8",\r\n            "hash": "0x675e336a4281b29c619dfd4ccfbd2f930f3728b20caf9e0067284aa3224e6758",\r\n            "input": "0x608060405234801561001057600080fd5b5060c78061001f6000396000f3fe6080604052348015600f57600080fd5b506004361060325760003560e01c80636057361d146037578063b05784b8146062575b600080fd5b606060048036036020811015604b57600080fd5b8101908080359060200190929190505050607e565b005b60686088565b6040518082815260200191505060405180910390f35b8060008190555050565b6000805490509056fea26469706673582212208dea039245bf78c381278382d7056eef5083f7d243d8958817ef447e0a403bd064736f6c63430006060033",\r\n            "nonce": "0x0",\r\n            "to": null,\r\n            "transactionIndex": "0x0",\r\n            "value": "0x0",\r\n            "v": "0xf9d",\r\n            "r": "0x2e30624c0305e64812e1d9e325ba6e50410314634b008edcb50f45be71fa0d4",\r\n            "s": "0x50e205faed23c219ba15610de2451d458cbd4221207b2168344cfc972a7973c0"\r\n          }\r\n        ]\r\n      },\r\n      "hash": "0x601a3ae9b6eceb2476d249e1cffe058ba3ff2c9c1b28b1ec7a0259fdd1d90121",\r\n      "rlp": "0xf9039df9025ca098ae440cd7b904d842daa6c263608969a3c8ce6a9acd6bd1f99b394f5f28a207a01dcc4de8dec75d7aab85b567b6ccd41ad312451b948a7413f0a142fd40d49347940000000000000000000000000000000000000000a0140a9783291704223eb759e3a0db5471a520d349fc17ac2f77ff8582472e3baca08ee998cc699a1f9310a1079458780b3ebee8756f96a0905f5224b89d0eb17486a02b5c77f6e7764d2468178fab7253346b9b8bb6a34b63946f6bdc2f5ad398bfc3b9010000000000000000000000000000000000000000000000000000000000000000000000000000000000000000000000000000000000000000000000000000000000000000000000000000000000000000000000000000000000000000000000000000000000000000000000000000000000000000000000000000000000000000000000000000000000000000000000000000000000000000000000000000000000000000000000000000000000000000000000000000000000000000000000000000000000000000000000000000000000000000000000000000000000000000000000000000000000000000000000000000000000000000000000000000000000020886ffffffffffff8301a4c9845f5b6b80b86100000000000000000000000000000000000000000000000000000000000000004d04551bdd9ae08af1fd661e49d4ab662c98c532c7ec0e4656a27e4de7d330af578ab1e4f5e49e085ff1d78673c7388ed9ccf017fbe89e53066bfa4018142c0701a00000000000000000000000000000000000000000000000000000000000000000880000000000000000f9013af90137808203e88301a4c98080b8e6608060405234801561001057600080fd5b5060c78061001f6000396000f3fe6080604052348015600f57600080fd5b506004361060325760003560e01c80636057361d146037578063b05784b8146062575b600080fd5b606060048036036020811015604b57600080fd5b8101908080359060200190929190505050607e565b005b60686088565b6040518082815260200191505060405180910390f35b8060008190555050565b6000805490509056fea26469706673582212208dea039245bf78c381278382d7056eef5083f7d243d8958817ef447e0a403bd064736f6c63430006060033820f9da002e30624c0305e64812e1d9e325ba6e50410314634b008edcb50f45be71fa0d4a050e205faed23c219ba15610de2451d458cbd4221207b2168344cfc972a7973c0c0"\r\n    }\r\n  ]\r\n}\r\n\n'})})]})}function h(e={}){const{wrapper:d}={...(0,l.R)(),...e.components};return d?(0,i.jsx)(d,{...e,children:(0,i.jsx)(o,{...e})}):o(e)}},8453:(e,d,t)=>{t.d(d,{R:()=>n,x:()=>a});var i=t(6540);const l={},c=i.createContext(l);function n(e){const d=i.useContext(c);return i.useMemo((function(){return"function"==typeof e?e(d):{...d,...e}}),[d,e])}function a(e){let d;return d=e.disableParentContext?"function"==typeof e.components?e.components(l):e.components||l:n(e.components),i.createElement(c.Provider,{value:d},e.children)}}}]);